:200000000C94D7030C94F4030C94F4030C94062A0C94DC330C94F4030C94F4030C94F403F4
:200020000C94F4030C94F4030C94F4030C94DC1D0C94F4030C94F4030C94F4030C94F40306
:200040000C9485160C94F4030C94BE140C9479140C94F4030C94F4030C94F4030C94F403D3
:200060000C94F4030C94F4038A219121942197219C21A621B221312231223122BC21BF217B
:20008000C821D121DB2131223122312231223122E521F32101220B220E221722202225228E
:2000A000084AD73B3BCE016E84BCBFFDC12F3D6C74319ABD56833DDA3D00C77F11BED9E4D4
:2000C000BB4C3E916BAAAABE000000803F05A84CCDB2D44EB93836A9020C50B991868808E6
:2000E0003CA6AAAA2ABE000000803F3E0D0A002C463A002C4C6E3A002C52583A002C42750F
:20010000663A002C002C57506F733A002C002C4D506F733A003C436865636B003C416C61AF
:20012000726D003C486F6D65003C486F6C64003C52756E003C5175657565003C49646C65EC
:20014000005D0D0A005B302E39672E32303134303930353A000D0A003D00244E005D0D0A9B
:2001600000205300204600205400204D3800204D3900204D3500204D3400204D3300204D97
:200180003200204D3100204D30002047393400204739330020473931002047393000204743
:2001A000323000204732310020473139002047313800204731370020470047383000473313
:2001C000382E35004733382E34004733382E33004733382E32004733004732004731004799
:2001E00030005B005D0D0A005B544C4F3A005D0D0A002C005B4739323A005D0D0A002C00F5
:200200003A003330003238005B47005D0D0A003A002C005B5052423A00290D0A00206D61B4
:20022000782074726176656C2C206D6D0020616363656C2C206D6D2F7365635E3200206DAD
:20024000617820726174652C206D6D2F6D696E002C20737465702F6D6D007A0079007800E4
:200260002028003D0024002028686F6D696E672070756C6C2D6F66662C206D6D290D0A0060
:200280002028686F6D696E67206465626F756E63652C206D736563290D0A2432373D002011
:2002A00028686F6D696E67207365656B2C206D6D2F6D696E290D0A2432363D002028686F0B
:2002C0006D696E6720666565642C206D6D2F6D696E290D0A2432353D00290D0A2432343D17
:2002E000002028686F6D696E672064697220696E76657274206D61736B3A002028686F6D8B
:20030000696E67206379636C652C20626F6F6C290D0A2432333D00202868617264206C6995
:200320006D6974732C20626F6F6C290D0A2432323D002028736F6674206C696D6974732C21
:2003400020626F6F6C290D0A2432313D0020286175746F2073746172742C20626F6F6C295D
:200360000D0A2432303D0020287265706F727420696E636865732C20626F6F6C290D0A24C9
:2003800031343D00202861726320746F6C6572616E63652C206D6D290D0A2431333D002015
:2003A000286A756E6374696F6E20646576696174696F6E2C206D6D290D0A2431323D002975
:2003C0000D0A2431313D002028737461747573207265706F7274206D61736B3A00202870DD
:2003E000726F62652070696E20696E766572742C20626F6F6C290D0A2431303D0020286C88
:20040000696D69742070696E7320696E766572742C20626F6F6C290D0A24363D002028730D
:2004200074657020656E61626C6520696E766572742C20626F6F6C290D0A24353D00290D30
:200440000A24343D00202864697220706F727420696E76657274206D61736B3A00290D0A93
:2004600024333D0020287374657020706F727420696E76657274206D61736B3A0020287386
:200480007465702069646C652064656C61792C206D736563290D0A24323D002028737465CB
:2004A000702070756C73652C2075736563290D0A24313D0024303D002424202876696577D9
:2004C000204772626C2073657474696E6773290D0A24232028766965772023207061726153
:2004E0006D6574657273290D0A244720287669657720706172736572207374617465290D9A
:200500000A2449202876696577206275696C6420696E666F290D0A244E2028766965772090
:200520007374617274757020626C6F636B73290D0A24783D76616C756520287361766520BD
:200540004772626C2073657474696E67290D0A244E783D6C696E65202873617665207374E9
:20056000617274757020626C6F636B290D0A24432028636865636B2067636F6465206D6F19
:200580006465290D0A245820286B696C6C20616C61726D206C6F636B290D0A244820287286
:2005A000756E20686F6D696E67206379636C65290D0A7E20286379636C6520737461727422
:2005C000290D0A2120286665656420686F6C64290D0A3F202863757272656E7420737461E5
:2005E000747573290D0A6374726C2D7820287265736574204772626C290D0A000D0A4772E3
:20060000626C20302E39670D0A005D0D0A0044697361626C656400456E61626C656400435D
:20062000617574696F6E3A20556E6C6F636B656400272448277C2724582720746F20756E95
:200640006C6F636B00526573657420746F20636F6E74696E7565005B000D0A0050726F6261
:2006600065206661696C0041626F727420647572696E67206379636C6500486172642F7367
:200680006F6674206C696D697400414C41524D3A20000D0A00496E76616C69642067636FD4
:2006A00064652049443A00556E646566696E65642066656564207261746500556E7375705D
:2006C000706F7274656420636F6D6D616E64004D6F64616C2067726F75702076696F6C6118
:2006E00074696F6E004C696E65206F766572666C6F7700486F6D696E67206E6F7420656E5E
:2007000061626C656400416C61726D206C6F636B004E6F742069646C6500454550524F4D74
:200720002072656164206661696C2E205573696E672064656661756C74730056616C756578
:20074000203C203320757365630053657474696E672064697361626C65640056616C7565E7
:20076000203C203000496E76616C69642073746174656D656E7400426164206E756D6265D3
:200780007220666F726D617400457870656374656420636F6D6D616E64206C65747465725D
:2007A000006572726F723A20006F6B0D0A0011241FBECFEFD8E0DEBFCDBF11E0A0E0B1E011
:2007C000EAEFF3E702C005900D92A030B107D9F716E0A0E0B1E001C01D92AA3BB107E1F72C
:2007E0000E94F6030C94FB390C9400001F930E9446140E9444230E949B160E94CB338FE1D0
:20080000E5E1F5E0DF011D928A95E9F781E08093150578948091A90684FF03C081E080939B
:20082000160511E00E94B9140E9488130E949C130E9425140E9480290E94332E0E94842838
:200840000E94AC1D0E94FE230E94D00810921505109217058091A90681FF03C010932405A7
:2008600002C0109224050E94E115DCCF8091170584FD1AC08FB7F8949091170590619093FD
:2008800017058FBF0E94A6130E94281480911605847351F09FB7F89480911705806280934D
:2008A00017059FBF0E94801D089593B196718091A90686FD02C086E19827992359F00E94C5
:2008C00036049FB7F894809117058066809317059FBF089584E0809316050E94A42984E05A
:2008E0000E943A2A83E00E943A2A0E94241580911505882341F40E94D008109216050E94CA
:20090000801D0E9480290895EF92FF920F931F93CF93DF937B018C0180911605823009F434
:2009200047C0C801B70120E030E040EA51E40E94D4380E9468370E94FF36EB010E94BE1599
:20094000C801B70120E030E04AE754E40E94D4387B018C0182E390E0C89FB001C99F700D14
:20096000D89F700D112480E090E00E942B379B01AC01C801B7010E94B1350E9468370E9445
:20098000FF36DC01CB010E944D2900E911E00EC00E94241580911505882351F484EF91E0DF
:2009A000F8013197F1F70197D9F72197209781F7DF91CF911F910F91FF90EF9008959F9243
:2009C000AF92BF92CF92DF92EF92FF920F931F93CF93DF93EC015A016B01922E8091A90645
:2009E00085FF03C0CE010E94AF29809116058230D1F00E942415809115058823A1F40E94E0
:200A0000F423882319F00E941715F3CFCE01B601A501292D0E94842580911605882319F4CA
:200A200088E080931605DF91CF911F910F91FF90EF90DF90CF90BF90AF909F9008952F9209
:200A40003F924F925F926F927F928F929F92AF92BF92CF92DF92EF92FF920F931F93CF9363
:200A6000DF932C013A014B01122F3E2C80911605823009F48DC00E94BE152090240510928D
:200A80003305802F0E943C2E0E944F2E882351F09FB7F894809117058064809317059FBFD8
:200AA0000E94241580911505882309F071C0C201B401A301212F860175010E94DF0481E00C
:200AC000809326059FB7F894809117058260809317059FBF0E94241580911505882309F0B0
:200AE00057C080911605882311F0883099F7809126058130A9F4332051F0E7E2F5E0DF0123
:200B00001F978CE00D9001928150E1F70CC09FB7F894809117058064809317059FBF03C0CB
:200B200081E080933305109226050E94241580911505882369F50E94AC1D0E9484280E94D2
:200B4000FE2388E1E82E85E0F82EC0E0D0E082010C0F1D1FF70161917191819191917F01A0
:200B60000E942D37FE01E459F94F20813181428153810E949236F8016083718382839383AC
:200B80002496CC30D10519F7209224050E94A42EDF91CF911F910F91FF90EF90DF90CF906E
:200BA000BF90AF909F908F907F906F905F904F903F902F9008952F923F924F925F926F92ED
:200BC0007F928F929F92AF92BF92CF92DF92EF92FF920F931F93DF93CF93CDB7DEB7EF9775
:200BE0000FB6F894DEBF0FBECDBF9CAB8BAB7EAB6DAB3A010FAB18AF29AF3AAFCBAEDCAE70
:200C0000EDAEFEAEAFAE9924880C991C880C991C880D991D9AAB89AB9A01280D391D38AB14
:200C20002FA7D901AD90BD90CD90DC90C601B501E9A9FAA920813181428153810E94B2358C
:200C40006DA37EA38FA398A765966FAD6597462E5524440C551C440C551C2BA93CA9240D86
:200C6000351D3EA72DA7C301840D951D9CA78BA7DC01ED90FD900D911C91C801B701F90140
:200C800020813181428153810E94B23569A37AA38BA39CA3D601C501B0588D8F9E8FAF8F1F
:200CA000B8A3D801C701B058898F9A8FAB8FBC8FADA9BEA98A0E9B1EF40160817181828191
:200CC00093812DA13EA14FA158A50E94B1353B014C012DA93EA9420E531ED2016D917D91F8
:200CE0008D919C9129A13AA14BA15CA10E94B1355B016C016D8D7E8D8F8D98A1A601950133
:200D00000E94D4387B018C01698D7A8D8B8D9C8DA40193010E94D4389B01AC01C801B7012D
:200D20000E94B1351B012C016D8D7E8D8F8D98A1A40193010E94D4387B018C01698D7A8D9B
:200D40008B8D9C8DA60195010E94D4389B01AC01C801B7010E94B2359B01AC01C201B10156
:200D60000E9425365B016C0167968FAD6797882399F0C601B50120E030E040E050E00E94C3
:200D800099388823ECF0C601B5012BED3FE049EC50E40E94B13512C0C601B50120E030E0F7
:200DA00040E050E00E948B36181654F0C601B5012BED3FE049EC50E40E94B2355B016C019F
:200DC000E090A506F090A6060091A7061091A8066FA978AD89AD9AAD9B01AC010E94B235B3
:200DE000A80197010E94B1359B01AC01C801B7010E94D4380E9461397B018C01C601B501F0
:200E000020E030E040E05FE30E94D4382FA938AD49AD5AAD0E94D4389F77A80197010E9451
:200E200092360E9468370E94FF36788F6F8B6115710509F48DC1BFADBB2381F080E090E00F
:200E40000E942B379B01AC016BAD7CAD8DAD9EAD0E94D4386BAF7CAF8DAF9EAF2F89388D86
:200E6000B90180E090E00E942B377B018C01C601B501A80197010E9492366B8B7C8B8D8B9E
:200E80009E8B6696EFAD6697F0E0EE0FFF1FEE0FFF1F8BA99CA98E0F9F1F9AA789A7ADA9F3
:200EA000BEA9EA0FFB1F6081718182819381E9A5FAA520813181428153810E94B135A80186
:200EC00097010E9492366F87788B898B9A8B6B897C898D899E899B01AC010E94D4389B0115
:200EE000AC0160E070E080E090E40E94B1355B016C016B897C898D899E892BEA3AEA4AE2F5
:200F00005EE30E94D4387B018C01C601B50120E030E040E850E40E94B2359B01AC01C80155
:200F2000B7010E94D4386B877C878D879E87C601B50120E030E040E05FE30E94D438698394
:200F40007A838B839C8321E030E03E832D839924F7C03BE0391508F446C06D8D7E8D8F8DE5
:200F600098A12B853C854D855E850E94D4387B018C01698D7A8D8B8D9C8D29813A814B81EC
:200F80005C810E94D4389B01AC01C801B7010E94B2357B018C016D8D7E8D8F8D98A1298166
:200FA0003A814B815C810E94D4385B016C01698D7A8D8B8D9C8D2B853C854D855E850E9450
:200FC000D4389B01AC01C601B5010E94B1356D8F7E8F8F8F98A39394C701D801898F9A8F4C
:200FE000AB8FBC8F61C0AD81BE81BD0180E090E00E942B372B893C894D895E890E94D43868
:201000007B018C01C8010E948F366F83788789879A87B701C8010E9457393B014C01EFA5A5
:20102000F8A9E080F1800281138117FB109517F91095ABA5BCA52D903D904D905C90C801EE
:20104000B7012F81388549855A850E94D4385B016C01C201B101A40193010E94D4389B014F
:20106000AC01C601B5010E94B2356D8F7E8F8F8F98A3C801B701A40193010E94D4387B0177
:201080008C01C201B1012F81388549855A850E94D4389B01AC01C801B7010E94B135698F3C
:2010A0007A8F8B8F9C8F99246DA17EA18FA198A52D8D3E8D4F8D58A10E94B235E9A9FAA973
:2010C000608371838283938369A17AA18BA19CA1298D3A8D4B8D5C8D0E94B235ADA5BEA514
:2010E0006D937D938D939C931397E9A5FAA560817181828193812F85388949895A890E9404
:20110000B235A9A5BAA56D937D938D939C9313978BA99CA94BAD5CAD6DAD7EAD2FAD6B9696
:20112000ECACFDAC0EAD1FAD6B970E94DF04809115058823E1F4ED81FE813196FE83ED8310
:201140002D813E818F89988D2817390708F401CF8DA99EA94BAD5CAD6DAD7EAD2FAD6B96FA
:20116000ECACFDAC0EAD1FAD6B970E94DF04EF960FB6F894DEBF0FBECDBFCF91DF911F91D4
:201180000F91FF90EF90DF90CF90BF90AF909F908F907F906F905F904F903F902F900895F0
:2011A000609118057091190580911A0590911B050E942D3720916C0630916D0640916E06EF
:2011C00050916F060E94923660934B0570934C0580934D0590934E0560911C0570911D05A8
:2011E00080911E0590911F050E942D37209170063091710640917206509173060E94923604
:2012000060934F05709350058093510590935205609120057091210580912205909123058E
:201220000E942D37209174063091750640917606509177060E949236609353057093540585
:20124000809355059093560508952F923F924F925F926F927F928F929F92AF92BF92CF924B
:20126000DF92EF92FF920F931F93DF93CF93CDB7DEB7A9970FB6F894DEBF0FBECDBF1C0106
:20128000E3E7F5E089E3DF011D928A95E9F73196A4E3B5E08AE00D9001928150E1F71982F4
:2012A0001DA2AA24BB24772418A21F8E1E8EF1E04F2E512C99249394E5E06E2E72E0872EFD
:2012C0009EC2802F81548A3118F081E00C946F139F5F9983C101BE016F5F7F4FAE014E5F51
:2012E0005F4F0E949528882319F482E00C946F13CA80DB80EC80FD80C701B6010E94AE390F
:201300000E94FF36162F70E0882777FD8095982F0E942D379B01AC01C701B6010E94B1350C
:2013200020E030E048EC52E40E94D4380E9437390E94FF369B01073421F00D3409F07CC13D
:2013400030C1163209F49CC01732F0F4143170F4113108F0DCC0143009F444C0143008F4CA
:201360008FC01A3011F00C945E1332C01C3181F11D3128F4163110F00C945E13EAC01E3156
:2013800011F00C945E1324C0103509F480C0113588F4153339F1163340F41B3209F4E2C038
:2013A000113311F00C945E13DDC01C3310F00C945E13EFC01C3561F01D3528F41A3510F4C8
:2013C0000C945E13B4C01F3510F00C945E13B8C02115310539F4BDA1BB2311F00C945C13C6
:2013E000E1E0EDA31C31A9F01D3128F4143051F01A3069F40AC0153369F11C3579F11E31AA
:2014000031F418C09092730502C08092730580E0C4C02115310531F02A30310511F00C9447
:201420005E1304C0F3E0F093730528C024E02093730524C02115310531F02A30310511F090
:201440000C945E1303C06092730518C086E08093730514C097E090937305D9CF211531058B
:2014600031F02A30310511F00C945E1304C0A8E0A093730503C0B9E0B093730580E0CCC0AF
:20148000EDA1EE2311F00C945C13F2E0FDA3123089F0133028F4112351F01130B1F50AC0EB
:2014A000163259F0103571F1133079F503C0109274052BC01093740528C02E313105B1F040
:2014C0002F31310530F42431310511F00C945E1309C02832310569F02233310511F00C94D7
:2014E0005E130BC024E0209374050AC06092740507C086E08093740503C097E090937405BC
:2015000081E08AC0A8E0A093740581E046C0123139F0133149F0113129F41092780502C05C
:201520009092780582E039C080927805FBCF1A3519F41092770502C09092770583E02DC02E
:201540001D3519F49092750502C01092750584E024C0143119F49092760502C0109276059C
:2015600085E01BC0BDA1BB2311F00C945C13113329F410927905E3E0EDA309C02A303105B2
:2015800011F00C945E1390927905F3E0FDA386E043C0165310937A0587E0232BE9F10C9403
:2015A0006013672B11F00C946013163018F41330C0F40AC0183010F40C945E131A3008F15F
:2015C0001E3111F00C945E13123041F01E3131F0112311F490927B0588E01EC080927B0514
:2015E000FBCF143039F0153041F0133041F490927D0505C080927D0502C010927D0589E07A
:201600000BC0183019F0193031F403C080927C0502C010927C058AE0920102C0220F331FC3
:201620008A95E2F7C9018A219B21892B11F00C946213A22AB32AE3C0003509F475C00135CE
:20164000BCF40A3409F444C00B343CF4063449F1093411F00C945E132EC00C3409F452C02C
:201660000C340CF442C00E3411F00C945E134EC00435A9F0053544F4023509F45FC00335F7
:2016800011F00C945E1364C0093509F477C00A3509F480C0083511F00C945E1363C029E0AB
:2016A00084C0C0927E05D0927F05E0928005F092810520E07AC0C0928205D0928305E092BD
:2016C0008405F092850528A1216028A321E06DC0C0928605D0928705E0928805F092890558
:2016E00088A1826088A322E060C0C0928A05D0928B05E0928C05F0928D0598A1946098A340
:2017000023E053C010938E0524E04FC0C701B6010E94FA3660938F05709390058093910551
:201720009093920525E041C0C0929305D0929405E0929505F092960526E037C0C0929705F0
:20174000D0929805E0929905F0929A0527E02DC0C0929B05D0929C05E0929D05F0929E0537
:2017600028E023C0C092A005D092A105E092A205F092A305A1E07A2A2AE017C0C092A4053B
:20178000D092A505E092A605F092A705B2E07B2A2BE00BC0C092A805D092A905E092AA05B5
:2017A000F092AB05E4E07E2A2CE08201022E02C0000F111F0A94E2F78E8D9F8D80239123B6
:2017C000892B11F089E18BC781E693E002C0959587952A95E2F780FF0CC0C701B60120E054
:2017E00030E040E050E00E948B36882314F484E076C78E8D9F8D802B912B9F8F8E8F9981BF
:20180000F101E90FF11D0081002309F05ACD772029F09DA1992311F4A2E0ADA3BE8DB5FF8C
:201820000FC080918F0590919005A0919105B091920580589649A849B04014F08BE14FC7C1
:2018400080917505813039F4FDA1F230B1F52E8D20FD33C039C780913505882371F58E8D77
:2018600080FF1BC080917605813039F560917E0570917F05809180059091810523E333E351
:201880004BEC51E40E94D43860937E0570937F05809380059093810510C0809142059091A7
:2018A0004305A0914405B091450580937E0590937F05A0938005B0938105AE8DBF8DB0FDE9
:2018C00010C080913E0590913F05A0914005B091410580939B0590939C05A0939D05B093F3
:2018E0009E0580917305813041F4BE8DB6FFEEC6EE8DFF8DEF7BFF8FEE8F8091780588236D
:2019000041F0813061F4F2E0FCA31BA221E02AA30BC01CA281E08BA392E09AA305C0A1E087
:20192000ACA3B2E0BBA31AA280917605813059F560EAE62E65E0F62E00E010E0C72CDD2496
:20194000C601002E02C0959587950A94E2F780FF11C0F701608171818281938123E333E3C5
:201960004BEC51E40E94D438D7016D937D938D939C9313970F5F1F4FE4E0F0E0EE0EFF1EE3
:2019800003301105E9F6FDA1F33049F480917905813029F424E0721611F085E2A0C6DE018B
:2019A0001696E7E5F5E08CE001900D928150E1F7A7FE12C090917A05973008F089C680915F
:2019C0003A05891749F0892FBE016A5F7F4F0E941923882309F47EC680917305823021F0CB
:2019E000883009F0FDC09AC0772009F475C68E8D9F8D80759070892B09F468C660919305AC
:201A00007091940580919505909196050E94AE390E94FF36673008F05BC620918E0524311C
:201A200031F0223009F04AC68E8D87FD47C6662319F0615069A303C090917A0599A38E0101
:201A40000E5E1F4F89A1B8010E941923882309F441C6780150EAA52E55E0B52E4BE4C42E7D
:201A600045E0D42E00E010E0872C9924C401002E02C0959587950A94E2F780FF3BC0809102
:201A80008E05843169F5D6016D917D918D919C91139758962D913D914D915C915B970E94EF
:201AA000B135F50120813181428153810E94B135D7016D937D938D939C9313970230D1F400
:201AC00020916F053091700540917105509172050E94B135F70160837183828393830AC0D0
:201AE000F50180819181A281B381F70180839183A283B3830F5F1F4F84E090E0E80EF91E5F
:201B0000A80EB91EC80ED91E0330110509F0AECFAE8DBF8DAF7ABF8FAE8F02C1772009F41A
:201B2000DBC500EA15E03BE4C32E35E0D32E26E0A22EB12CAC0EBD1EEE24FF24872C992413
:201B4000C4010E2C02C0959587950A94E2F780FF2CC0F6016081718182819381D5012D9127
:201B60003D914D915C910E94B135F80120813181428153810E94B135D8016D937D938D93D0
:201B80009C931397B2E0EB16D1F420916F053091700540917105509172050E94B135F80199
:201BA00060837183828393830AC0F601808D918DA28DB38DF80180839183A283B3830894D1
:201BC000E11CF11C0C5F1F4F84E090E0C80ED91EA80EB91E93E0E916F10409F0B1CF9FC0B5
:201BE000ADA1A33009F47CC0772009F479C09BE4C92E95E0D92E00EA15E086E0A82EB12CD4
:201C0000AC0EBD1EEE24FF24872C9924C4010E2C02C0959587950A94E2F780FD0BC0F601CD
:201C200080819181A281B381F80180839183A283B38346C080917305873009F441C080917A
:201C40007705882361F5D5016D917D918D919C91F601208D318D428D538D0E94B235D80167
:201C60002D913D914D915C910E94B235F8016083718382839383F2E0EF1611F520916F0597
:201C80003091700540917105509172050E94B235D8016D937D938D939C93139711C0F8013A
:201CA0006081718182819381D6012D913D914D915C910E94B235F801608371838283938398
:201CC0000894E11CF11C84E090E0C80ED91E0C5F1F4FA80EB91E93E0E916F10409F096CF92
:201CE00080917305853049F0873099F08330B9F4772009F41DA286E004C0772009F41DA2FD
:201D000087E0BE016E5E7F4F0E941923882339F4E1C480917405823010F08EE1E0C419A29E
:201D200010917405183049F4772009F460C2ADA1A13009F45CC28FE1D2C4BDA1B23009F0D5
:201D400056C21123E9F060917E0570917F05809180059091810520E030E040E050E00E9426
:201D60008B36882309F4B0C4143030F4123060F4113009F03CC204C0183008F038C214C27C
:201D8000772009F433C233C2772009F4A5C4FCA1EF2FF0E0F9A7E8A79BA1892F90E09FA368
:201DA0008EA381E090E08C010EA002C0000F111F0A94E2F708A402C0880F991F0A94E2F73A
:201DC000082B192B872D90E080239123892B11F480E285C4E8A5F9A5EE0FFF1FEE0FFF1F4C
:201DE000DF01AC5CBA4FED58FA4F65A576A587A590A957962D913D914D915C915A970E9403
:201E0000B1353B014C01EEA1FFA1EE0FFF1FEE0FFF1FDF01AC5CBA4FED58FA4F65A576A54A
:201E200087A590A957962D913D914D915C915A970E94B1351B012C01AE8DA7FF02C10BE4A4
:201E400015E070EAE72E75E0F72EF8016081718182819381D7012D913D914D915C910E94F0
:201E60008B36882359F40C5F1F4FE4E0F0E0EE0EFF1EF5E007351F0741F730C48091760534
:201E80008130B1F460919705709198058091990590919A0523E333E34BEC51E40E94D4381C
:201EA00060939705709398058093990590939A05E0909705F09098050091990510919A05E8
:201EC000C801B70120E030E040E850E40E94D438A80197010E94D4387B018C01C401B301F6
:201EE000A40193010E94D4389B01AC01C801B7010E94B1357B018C01C201B101A2019101F6
:201F00000E94D4389B01AC01C801B7010E94B1357B018C0120E030E040E050E00E948B36F5
:201F2000882314F482E2DBC3C801B7010E9461397B018C01C401B301A20191010E94572956
:201F40009B01AC0117FB109517F91095C801B7010E9492367B018C0180917405833021F486
:201F600017FB109517F91095A0909705B0909805C0909905D0909A05C601B50120E030E0D2
:201F800040E050E00E948B3688237CF417FB109517F91095D601C501B05880939705909390
:201FA0009805A0939905B0939A058E8D9F8D8F779F8F8E8FA8A5B9A5AA0FBB1FAA0FBB1F68
:201FC000A958BA4FB9A7A8A7C201B101A80197010E94D4389B01AC01C401B3010E94B1359A
:201FE00020E030E040E05FE30E94D438E8A5F9A563877487858796878EA19FA1880F991FCA
:20200000880F991F89589A4F9FA38EA3C401B301A80197010E94D4389B01AC01C201B1010E
:202020000E94B23520E030E040E05FE30E94D438AEA1BFA11B966D937D938D939C931E9783
:20204000D6C0B8A1CB2EDD240C211D21012B11F483E245C3EE8DFF8DE17FFF8FEE8F80910B
:202060007605813041F542E8E42E45E0F42E00E010E0C601002E02C0959587950A94E2F737
:2020800080FF10C0D7016D917D918D919C9123E333E34BEC51E40E94D438F70160837183BD
:2020A000828393830F5F1F4F84E090E0E80EF91E03301105F1F6E8A4F9A4EE0CFF1CEE0CE0
:2020C000FF1CA7E7B5E0EA0EFB1EC401B301F70123853485458556850E94B1355B016C01E9
:2020E0000EA11FA1000F111F000F111F09581A4FC201B101D8011B962D913D914D915C91D3
:202100001E970E94B1359B01AC01C601B5010E9457295B016C01F7016385748585859685D3
:20212000D8011B962D913D914D915C911E970E9457293B014C01609397057093980580931C
:20214000990590939A05C601B501A40193010E94B1357B018C01E89417F9C801B7012AE0C1
:2021600037ED43EA5BE30E94993818160CF03FC0C801B70120E030E040E05FE30E949938CE
:2021800018160CF4ABC2C401B3012FE632E143E85AE30E94D4389B01AC01C801B7010E9481
:2021A0009938181624F59AC2772009F495C20BE415E090EAE92E95E0F92EF80160817181E3
:2021C00082819381D7012D913D914D915C910E948B36882361F40C5F1F4FE4E0F0E0EE0EED
:2021E000FF1EF5E007351F0741F778C21DA28E8D9F8D8E7D9C7F2DA1222321F08E8D9F8D82
:202200008E7D907E892B11F084E269C280918F0590919005A0919105B09192058093470506
:2022200090934805A0934905B0934A05809175058093350580917E0590917F05A091800554
:20224000B09181058093420590934305A0934405B0934505E0909B05F0909C0500919D0585
:2022600010919E0560913E0570913F058091400590914105A80197010E948B36882381F024
:20228000E0923E05F0923F05009340051093410580913D05882321F0B801A7010E94AD1330
:2022A00080919F058093460590917D0580913D05891769F090933D0540913E0550913F057E
:2022C0006091400570914105892F0E94AD1390917C0580913C05891729F090933C05892F9E
:2022E0000E942A1480917305813051F4609193057091940580919505909196050E948404CB
:20230000809178058093380580917605809336058DA18330D9F480917905809339058130C6
:2023200049F48091A8059091A905A091AA05B091AB0504C080E090E0A0E0B0E080936F05D7
:2023400090937005A0937105B093720590917A0580913A05891759F090933A05A7E5B5E026
:20236000FE0136968CE001900D928150E1F7809177058093370580917305853059F1863033
:2023800048F4833039F1843008F056C0823009F06CC00AC0883009F457C0893009F45EC021
:2023A000863009F062C04AC08E010E5E1F4F89A1B8010E940E2380913A0599A1891709F000
:2023C00054C0A7E5B5E0F8018CE001900D928150E1F74BC0ADA1AA2389F0E0904705F090AF
:2023E00048050091490510914A0580EA95E040E050E060E87FEB20E00E94DF0482E1C82E02
:20240000D12CCC0EDD1EE0904705F09048050091490510914A05C60140E050E060E87FEBC9
:2024200020E00E94DF04ABE4B5E0F6018CE001900D928150E1F719C086E001C087E06BE401
:2024400075E00E940E2311C0A3E6B5E0E0EAF5E08CE001900D928150E1F707C08CE0E3E685
:20246000F5E0DF011D928A95E9F78091740580933405883009F40BC1BDA1B23009F007C1A1
:20248000833009F45EC0843028F4813001F18230A8F50DC0853009F4ABC0853008F492C0BF
:2024A000863009F4BBC0873009F0E8C0CEC0E0904705F09048050091490510914A0580EA46
:2024C00095E040E050E060E87FEB20E014C040914205509143056091440570914505E0907B
:2024E0004705F09048050091490510914A0580EA95E0209135050E94DF04C0C0EDB7FEB7CC
:2025000037970FB6F894FEBF0FBEEDBF319600919705109198052091990530919A05C09035
:202520004205D0904305E0904405F09045058BA1ADB7BEB711968C939AA1918381E08283A9
:2025400021C0EDB7FEB737970FB6F894FEBF0FBEEDBF31960091970510919805209199056B
:2025600030919A05C0904205D0904305E0904405F09045058BA1ADB7BEB711968C939AA133
:20258000918312828091470590914805A0914905B0914A0583839483A583B6838BE495E057
:2025A00060EA75E042E855E0A09035058CA00E94DB05ADB7BEB717960FB6F894BEBF0FBEE4
:2025C000ADBF5CC040914205509143056091440570914505A0904705B0904805C090490506
:2025E000D0904A0580EA95E02091350500E02BC040914205509143056091440570914505D1
:20260000A0904705B0904805C0904905D0904A0580EA95E02091350500E02CC040914205B6
:20262000509143056091440570914505A0904705B0904805C0904905D0904A0580EA95E0B7
:202640002091350501E0EE2417C040914205509143056091440570914505A0904705B09043
:202660004805C0904905D0904A0580EA95E02091350501E0EE24E3940E941F05ABE4B5E0A2
:20268000E0EAF5E08CE001900D928150E1F780917B0580933B05882311F10E94BE151092AE
:2026A000240580913B05823019F40E94360402C010923B0580E013C088E111C084E10FC0C0
:2026C00087E10DC085E10BC086E109C08CE107C08DE105C087E003C08AE101C081E2A99605
:2026E0000FB6F894DEBF0FBECDBFCF91DF911F910F91FF90EF90DF90CF90BF90AF909F90DA
:202700008F907F906F905F904F903F902F900895E4E3F5E08FE3DF011D928A95E9F78091E6
:202720003A05BF016D5D7F4F0E941923882319F487E00E94E12E0895239A239A259AE0EBB3
:20274000F0E080818F7780832B980895E0EBF0E080818F7780832B980895DF92EF92FF92B7
:202760000F931F93D82E7A018B0180911605823009F465C00E9417150E94BE15DD2039F48B
:202780008091B0008F778093B0002B9858C081E0D81611F42D9801C02D9A83E88093B00005
:2027A0008091B100887F82608093B100C801B70120E030E84BEB54E40E948B3688235CF445
:2027C0000F2EF0E0EF2EF0E0FF2EF0E00F2FF0E01F2FF02D1CC0C801B70120E030E84BEBDE
:2027E00054E40E94B1357B018C0120E030ED44E056E40E949938181654F40F2EF0E0EF2E82
:20280000F0EDFF2EF4E00F2FF6E41F2FF02DC801B7012FE832EC45EF5CE30E94D43820E080
:2028200030E040E05FE30E94B2350E9468370E94FF36643108F464E16093B3002B9A1F9194
:202840000F91FF90EF90DF9008953B9A43980895439808951F93182F80911605823049F0E9
:202860000E9417150E94BE15123011F4439A01C043981F9108959091010180910001891733
:2028800010F0891B08958058891B0895E0ECF0E08081826080831092C50080E18093C400BD
:2028A000E1ECF0E08081806180838081886080838081806880830895282FE09102019E2F89
:2028C0009F5F903431F490E004C08091170584FD0FC0809103019817C1F3F0E0E455FA4F96
:2028E0002083909302018091C10080628093C10008951F920F920FB60F9211248F939F93A9
:20290000EF93FF9380910301E82FF0E0E455FA4F90819093C600982F9F5F903409F490E035
:202920009093030180910201981729F48091C1008F7D8093C100FF91EF919F918F910F90DF
:202940000FBE0F901F9018959091010180910001891711F48FEF0895E92FF0E0E451FA4F54
:202960008081E92FEF5FE03809F4E0E0E09301010895809100018093010108951F920F92F3
:202980000FB60F9211242F933F934F935F936F937F938F939F93AF93BF93EF93FF93209173
:2029A000C6002132C9F0223218F42831F1F41AC02F3319F02E37C9F406C09FB7F894809187
:2029C0001705816005C09FB7F894809117058260809317059FBF1AC09FB7F89480911705CE
:2029E0008860F6CF0E94360411C0E09100019E2F9F5F903809F490E080910101981731F028
:202A0000F0E0E451FA4F208390930001FF91EF91BF91AF919F918F917F916F915F914F91D1
:202A20003F912F910F900FBE0F901F90189580912405882341F09FB7F89480911705826098
:202A4000809317059FBF0895CF93DF9380911705882309F48AC0C82FD0E0CE0180769070ED
:202A6000892B39F181E080931605C6FF17C0C5FF02C08FEF01C08DEF0E94AA3381E00E948A
:202A80007A2E9FB7F894809117058F7E809317059FBF8091170584FFFCCF03C08EEF0E9488
:202AA000AA339FB7F894809117058F79809317059FBFC4FF04C081E0809315055CC0C0FFA5
:202AC0000AC00E94482F9FB7F894809117058E7F809317059FBFC3FF15C0809116058031F6
:202AE00049F480E2809316050E94BD160E94F616109224059FB7F89480911705877F8093F3
:202B000017059FBFC1FF1DC080911605883089F480E1809316050E94F6160E945D168091DA
:202B2000A90681FF04C081E08093240502C0109224059FB7F894809117058D7F809317052E
:202B40009FBFC2FF12C00E94E323892B21F088E08093160502C0109216059FB7F89480910F
:202B600017058B7F809317059FBF80911605847311F00E94F616DF91CF9108958091240529
:202B8000882341F09FB7F894809117058260809317059FBF80911605803151F481E0809345
:202BA000240506C00E94241580911505882341F40E94E323892BB1F780911605803191F3DB
:202BC00008950F931F930E94752E80911605813021F482E00E947A2E1CC01092160584E024
:202BE00091E00E94183415C09A3011F09D3029F5E12FF0E0EC5FFE4F10820E9424158091F5
:202C00001505882331F480910401882321F40E94E12E00E025C0843229F484E091E00E9434
:202C20004434F5CF80911605813011F489E0EFCF84E091E00E942509EACF002321F09932F2
:202C400009F500E01FC09132E8F09F32D9F0983211F401E017C01F3428F08BE00E94E12E74
:202C600010E010C0892F8156A12FB0E0E12FEF5F8A3120F4AC5FBE4F905202C0AC5FBE4FA4
:202C80009C931E2F0E94A414982F8F3F09F0ACCF80912405882341F09FB7F8948091170530
:202CA0008260809317059FBF0E94241580911505882341F31F910F9108958091A90682FF92
:202CC00002C0289A01C02898809116058471E1F08091F4018093DC018091F3018093DB0113
:202CE00080919C0690E0A0E0B0E00297A109B109880F991FAA1FBB1F81958093DA0180919D
:202D00006F00826080936F0008951F920F920FB60F9211248F939F939BB18091F3018C71B4
:202D2000937E892B8BB915BC9F918F910F900FBE0F901F9018958AB18C618AB9209A8AB1A2
:202D4000806E8AB9E1E8F0E080818F7E8083808188608083E0E8F0E080818C7F8083808104
:202D60008F708083EEE6F0E08081887F808314BC15BC8081816080830895CF93DF93C0915A
:202D8000F601D091F7012097B9F081E08093FB01209111023091120240911302509114029D
:202DA000CA01B9010E94D438698B7A8B8B8B9C8B1092F7011092F601DF91CF9108958091F9
:202DC0001605847321F470E060E090E008C070911102609112029091130280911402272F38
:202DE000362F492F582FB901CA0108952F923F924F925F926F927F928F929F92AF92BF92F3
:202E0000CF92DF92EF92FF920F931F93DF93CF93CDB7DEB7E9970FB6F894DEBF0FBECDBFC6
:202E200013C68091F6019091F701892B09F07EC20E94E3239093F7018093F601892B09F42D
:202E40000AC68091FB01882319F01092FB01CAC08091FA018F5F8093FA01853011F4109255
:202E6000FA01E091FA0121E1E29FF0011124EC5AFE4FF093F901E093F8010091F60110919D
:202E8000F701D8018C91808311962D913D914D915C91149793E0220F331F441F551F9A959C
:202EA000D1F7218332834383548315962D913D914D915C91189783E0220F331F441F551FE6
:202EC0008A95D1F7258336834783508719962D913D914D915C911C9773E0220F331F441F17
:202EE000551F7A95D1F721873287438754871D962D913D914D915C91509763E0220F331FCA
:202F0000441F551F6A95D1F7258736874787508B1D966D917D918D919C9150970E942B370C
:202F20006093FC017093FD018093FE019093FF01F80125A136A147A150A50E9492369B01F2
:202F4000AC016093000270930102809302029093030260E070E080EA9FE30E9492366093B1
:202F6000040270930502809306029093070280E090E0A0E0B0E08093080290930902A0939C
:202F80000A02B0930B02809116058032E1F42091190230911A0240911B0250911C022093D9
:202FA0001102309312024093130250931402CA01B9010E94D438D80151966D937D938D9323
:202FC0009C9354970FC0F80161897289838994890E94613960931102709312028093130280
:202FE0009093140280E090E0A0E0B0E080930D0290930E02A0930F02B09310020091F60142
:203000001091F701D80191968D919D910D90BC91A02D88AB99ABAAABBBAB60E070E080E0F2
:203020009FE328A939A94AA95BA90E9492361B012C0180911605803209F056C0B2E0B093EF
:203040000C02F801A5A0B6A0C7A0D0A46188728883889488C201B101A40193010E94D4388D
:203060009B01AC01C601B5010E94B1357B018C0120E030E040E050E00E948B368823FCF49B
:2030800068A979A98AA99BA920E030E040E050EC0E94D438A60195010E94D4389B01AC0138
:2030A000C401B3010E94B2350E9461396093190270931A0280931B0290931C0237C1E092CA
:2030C0000D02F0920E0200930F021093100280E090E0A0E0B0E08093190290931A02A09376
:2030E0001B02B0931C0222C110920C02F80185A196A1A7A1B0A580931D0290931E02A09324
:203100001F02B09320020E9462255B016C016093190270931A0280931B0290931C02A601F2
:2031200095010E94D4383B014C012091F6013091F70139AF28AFD90195968D919D910D90B4
:20314000BC91A02D8B8F9C8FAD8FBE8FF9016189728983899489A40193010E94B1359B0122
:20316000AC01C201B1010E94D4389B01AC016B8D7C8D8D8D9E8D0E94B23520E030E040E037
:203180005FE30E94D4387B018C0120E030E040E050E00E94993818160CF0B4C0C801B70144
:2031A0002B8D3C8D4D8D5E8D0E948B3688230CF095C0A8ADB9AD5D966D917D918D919C9165
:2031C0009097A40193010E94B1359B01AC01C201B1010E94D438609321027093220280934B
:2031E000230290932402A80197010E948B3688230CF047C0E8ADF9ADE58CF68C078D10A19C
:20320000C801B7010E94613960931502709316028093170290931802A8ADB9AD5196AD9084
:20322000BD90CD90DC905497C601B501A80197010E948B36882321F4B1E0B0930C0276C094
:20324000C801B701A60195010E94B1359B01AC01C201B1010E94D4389B01AC0160911D0263
:2032600070911E0280911F02909120020E94B13560931D0270931E0280931F029093200282
:2032800055C0E0921D02F0921E0200931F0210932002E0922102F0922202009323021093D7
:2032A0002402E8ADF9AD21A132A143A154A1CA01B9010E94B235A80197010E94D438A4019D
:2032C00093010E94B2350E9461396093150270931602809317029093180228C0F2E0F093CA
:2032E0000C028091110290911202A0911302B09114028093150290931602A0931702B093D6
:20330000180214C080E090E0A0E0B0E080931D0290931E02A0931F02B0932002A092150268
:20332000B0921602C0921702D09218028091F101B6E08B9FD0011124A755BE4FB9AFA8AFBB
:203340008091FA0112968C93E091F601F091F701FA8FE98F85A196A1A7A1B0A58D8B9E8B7D
:20336000AF8BB88FBC01CD01209104023091050240910602509107020E94B1356CA37DA348
:203380008EA39FA320E030E040E050E00E948B36882344F480E090E0A0E0B0E08CA39DA3C5
:2033A000AEA3BFA380911D0290911E02A0911F02B0912002898B9A8BAB8BBC8B8091150256
:2033C00090911602A0911702B09118028D879E87AF87B88B8091210290912202A09123028E
:2033E000B091240289879A87AB87BC8780910D0290910E02A0910F02B09110028D839E83A9
:20340000AF83B8878091190290911A02A0911B02B0911C0289839A83AB83BC83809111026B
:2034200090911202A0911302B091140288A399A3AAA3BBA390910C029F8FAD88BE88CF8879
:20344000D88C8EE393ECAEE2B9E38CA79DA7AEA7BFA780E090E0A0E0B0E088A799A7AAA71A
:20346000BBA70F2EFEE36F2EF3EC7F2EFEE28F2EF9E39F2EF02D9F8D992321F0913009F08D
:20348000B3C080C0C401B301A98DBA8D91962D913D914D915C9194970E94D4387B018C0123
:2034A00020E030E040E05FE30E94D4389B01AC0168A179A18AA19BA10E94B2359B01AC0147
:2034C000C401B3010E94D4389B01AC01C601B5010E94B1355B016C0129893A894B895C8980
:2034E0000E948B3688230CF040C069897A898B899C8929853A854B855C850E948B36882368
:2035000019F4B2E0BF8F02C0E1E0EF8F6D897E898F89988D29893A894B895C890E94B135CD
:203520009B01AC010E94B2357B018C0168A179A18AA19BA12D853E854F8558890E94B23573
:203540009B01AC01C801B7010E9492363B014C01A988BA88CB88DC888D859E85AF85B889DA
:2035600088A399A3AAA3BBA3B0C068A179A18AA19BA1A80197010E94B23568A379A38AA321
:203580009BA3A3C06D857E858F859889A40193010E94D4389B01AC01C601B5010E94B1352B
:2035A0007B018C0129853A854B855C850E948B3687FD03C05701680188C0C601B501298506
:2035C0003A854B855C850E94B1352D853E854F8558890E9492363B014C01A984BA84CB841C
:2035E000DC8492E09F8F71C0C401B301A98DBA8D91962D913D914D915C9194970E94D4384D
:203600007B018C0168A179A18AA19BA1A80197010E9499381816ACF5C801B70120E030E003
:2036200040E05FEB0E94D4389B01AC0168A179A18AA19BA10E94B2359B01AC01C401B30154
:203640000E94D4389B01AC01C601B5010E94B1351B012C012D813E814F8158850E94993898
:2036600018167CF468A179A18AA19BA1A80197010E94B13568A379A38AA39BA36201510112
:2036800024C0C601B5012D813E814F8158850E94B1359B01AC010E94B2357B018C0168A143
:2036A00079A18AA19BA129813A814B815C810E94B2359B01AC01C801B7010E9492363B0182
:2036C0004C01AD80BE80CF80D88468A579A58AA59BA5A40193010E94B23568A779A78AA7CB
:2036E0009BA72CA53DA54EA55FA50E948B3688232CF46CA57DA58EA59FA518C0C601B501B1
:203700002CA13DA14EA15FA10E94993818160CF56CA57DA58EA59FA52EE333EC4EE259E327
:203720000E94B2356CA77DA78EA79FA728A539A54AA55BA50E94B1353B014C01C601B50126
:203740002D813E814F8158850E94993818160CF492CE88A199A1AAA1BBA1809311029093FB
:203760001202A0931302B09314029F8D90930C02C601B5012091000230910102409102026E
:20378000509103020E94D4386CAB7DAB8EAB9FAB0E9478361B012C016091FC017091FD014D
:2037A0008091FE019091FF010E9478363B014C01A20191010E94B1350E94FF36A8ADB9ADB0
:2037C0006D937C93672BB1F580911605803291F580E090E0A0E0B0E0809311029093120201
:2037E000A0931302B09314028093080290930902A0930A02B0930B022092FC013092FD01DF
:203800004092FE015092FF010091F6011091F701C201B10120910002309101024091020213
:20382000509103020E949236F80165A376A387A390A7FEC068A579A58AA59BA520910802AA
:203840003091090240910A0250910B020E94B2357B018C01C401B3012CA93DA94EA95FA90C
:203860000E94B1359B01AC01C801B7010E9492367B018C01C201B1012CA93DA94EA95FA954
:203880000E94B135A80197010E94D438609308027093090280930A0290930B02C801B701D6
:2038A00020EC31EE44E65EE40E94D4380E9478360E94FF36AB01BC01403DF7E05F07F0E0A9
:2038C0006F07F0E07F0728F4A8ADB9AD15961C9233C0403ABFE05B07B0E06B07B0E07B076A
:2038E00028F421E0E8ADF9AD25830FC040343FE1530730E0630730E0730710F4E2E001C080
:20390000E3E0A8ADB9AD1596EC93A8ADB9AD15962C911597022E04C076956795579547956D
:203920000A94D2F78D919C91119702C0880F991F2A95E2F78D939C934030B0E05B07B1E042
:203940006B07B0E07B0728F4E8ADF9AD5483438308C0EFEFFFEFA8ADB9AD1496FC93EE93E6
:2039600013978091F2018093F1018F5F8093F201863011F41092F201C601B5012D813E8166
:203980004F8158850E9499381816ACF4E091F601F091F701A5A2B6A2C7A2D0A68CA99DA95F
:2039A000AEA9BFA98093FC019093FD01A093FE01B093FF0149C0C601B50120E030E040E0EC
:2039C00050E00E9499381816CCF580E090E0A0E0B0E08093110290931202A0931302B0938D
:2039E00014028093080290930902A0930A02B0930B022092FC013092FD014092FE015092B5
:203A0000FF010091F6011091F701C201B101209100023091010240910202509103020E943C
:203A20009236D80195966D937D938D939C9398970E94592588E0809316050DC01092F7010F
:203A40001092F6010E94CF239091F0018091F201981709F0E6C9E9960FB6F894DEBF0FBE92
:203A6000CDBFCF91DF911F910F91FF90EF90DF90CF90BF90AF909F908F907F906F905F90E5
:203A80004F903F902F900895FF920F931F93CF93DF931092F3011092F401C0E0D0E00C2FAB
:203AA000FC2E80919D0690E00C2E02C0959587950A94E2F780FF08C01091F3018C2F0E94C6
:203AC000B820182B1093F30180919E0690E002C095958795FA94E2F780FF08C01091F401C3
:203AE000802F0E94C220182B1093F4012196C330D105A9F6DF91CF911F910F91FF9008954D
:203B000080916F008D7F80936F0080918100887F8160809381001092F50190919F069F3F4D
:203B200021F48091170585FF0AC080911605843031F0892F90E00E944D2991E001C090E012
:203B40008091A90682FF02C081E09827992311F0289A0895289808950E94801D8BE2EAEF44
:203B6000F1E0DF011D928A95E9F783E2EDECF1E0DF011D928A95E9F71092EF011092EE0126
:203B80001092F7011092F6011092F0011092F10181E08093F2011092F5010E94441D8BB18D
:203BA000837E9091F301892B8BB98BB18F719091F401892B8BB908951F920F920FB60F9258
:203BC00011242F933F934F935F936F937F938F939F93AF93BF93CF93DF93EF93FF93809153
:203BE000F501882309F007C29BB18091DC01807E9F71892B8BB98BB1837E9091DB01892B34
:203C00008BB98091DA0186BD82E085BD81E08093F50178948091EE019091EF01892B09F059
:203C2000A2C09091F0018091F101891709F490C09091F00186E0989FE0011124C755DE4F12
:203C4000D093EF01C093EE018B819C819093890080938800888199819093EA018093E90131
:203C60009A818091EB01891761F19093EB01E1E19E9FF0011124EC5AFE4FF093ED01E0938F
:203C8000EC0185859685A785B089B695A795979587958093CD019093CE01A093CF01B093C5
:203CA000D0018093D1019093D201A093D301B093D4018093D5019093D601A093D701B09308
:203CC000D801E091EC01F091ED018091F401908189278093DC012D8181819281A381B4816B
:203CE000022E04C0B695A795979587950A94D2F78093DD019093DE01A093DF01B093E00170
:203D000085819681A781B085022E04C0B695A795979587950A94D2F78093E1019093E20104
:203D2000A093E301B093E40181859285A385B48504C0B695A795979587952A95D2F7809398
:203D4000E5019093E601A093E701B093E8010BC00E94801D9FB7F89480911705846080931C
:203D600017059FBF48C10E94552E1092DB012091DD013091DE014091DF015091E00180916A
:203D8000CD019091CE01A091CF01B091D001280F391F4A1F5B1F2093CD013093CE014093FA
:203DA000CF015093D001E091EC01F091ED0185859685A785B08982179307A407B507A8F5F1
:203DC00084E08093DB0185859685A785B089281B390B4A0B5B0B2093CD013093CE014093DE
:203DE000CF015093D001808185FF0CC08091180590911905A0911A05B0911B050197A1098E
:203E0000B1090BC08091180590911905A0911A05B0911B050196A11DB11D80931805909389
:203E20001905A0931A05B0931B052091E1013091E2014091E3015091E4018091D1019091F9
:203E4000D201A091D301B091D401280F391F4A1F5B1F2093D1013093D2014093D30150935D
:203E6000D40185859685A785B08982179307A407B507B8F58091DB0188608093DB018585CE
:203E80009685A785B089281B390B4A0B5B0B2093D1013093D2014093D3015093D4018081E5
:203EA00086FF0CC080911C0590911D05A0911E05B0911F050197A109B1090BC080911C058A
:203EC00090911D05A0911E05B0911F050196A11DB11D80931C0590931D05A0931E05B093B1
:203EE0001F052091E5013091E6014091E7015091E8018091D5019091D601A091D701B091B3
:203F0000D801280F391F4A1F5B1F2093D5013093D6014093D7015093D80185859685A7857B
:203F2000B08982179307A407B507B8F58091DB0180618093DB0185859685A785B089281B77
:203F4000390B4A0B5B0B2093D5013093D6014093D7015093D801808187FF0CC0809120054F
:203F600090912105A0912205B09123050197A109B1090BC08091200590912105A09122059D
:203F8000B09123050196A11DB11D8093200590932105A0932205B09323058091160584306F
:203FA00039F4809125059091DB0189238093DB018091E9019091EA0101979093EA01809341
:203FC000E901892B79F41092EF011092EE018091F0018F5F8093F0018091F001863011F402
:203FE0001092F0018091F3019091DB0189278093DB011092F501FF91EF91DF91CF91BF91C5
:20400000AF919F918F917F916F915F914F913F912F910F900FBE0F901F901895F999FECFDA
:2040200092BD81BD81E08FBB80B50895F894F999FECF92BD81BD81E08FBB40B54627842F3E
:20404000992787FD9095262F30E082239323892B39F06F3F19F060BD84E006C084E104C033
:20406000442321F060BD84E28FBBF99A789408958F929F92AF92BF92CF92DF92EF92FF92F7
:204080000F93DF93CF9300D0CDB7DEB75C016B017A014A0100E01EC0002319F021E030E037
:2040A00008C0202F332727FD30952227330F221F3327F60161916F01062F020F9C012F5FB6
:2040C0003F4F3A8329830E94162008948108910889819A8181149104F9F6C7018A0D9B1DFE
:2040E000602F0E9416200F900F90CF91DF910F91FF90EF90DF90CF90BF90AF909F908F90F3
:204100000895CF93DF93EC01FB019A0190E0B1E019C0F999FECFF2BDE1BDBFBBA0B5992399
:2041200019F081E090E008C0892F992787FD90958827990F881F992731969A2F980FA9938B
:20414000215030402115310521F7460F571FF999FECF52BD41BD81E08FBB80B520E030E0D3
:20416000981711F421E030E0C901DF91CF910895882311F484E00895813011F080E10895E2
:2041800088E00895882311F480E20895813011F080E8089580E40895882311F482E0089504
:2041A000813011F080E1089584E0089580E090E00E940E20893011F020E00CC08CE696E040
:2041C00061E070E04DE450E00E94812020E0892B09F021E0822F089580E093E060E00E94F9
:2041E000162081E593E060E00E941620089580E090E069E00E94162081E090E06CE676E091
:204200004DE450E00E9438200895CF92DF92EF92FF920F931F93082F6A017B01CB01BA01C9
:2042200020E030E040E050E00E948B36882314F484E018C1043608F459C0045690E003307F
:2042400008F04BC0913089F0913030F09230D1F0933009F002C131C0E02FF0E0EE0FFF1F53
:20426000EE0FFF1FE459F94F08C0E02FF0E0EE0FFF1FEE0FFF1FE858F94FC082D182E28240
:20428000F382EBC010E0000F111F000F111F0C57194FC701B60120E030E040E752E40E9437
:2042A000D43820E030E040E752E40E94D438F8016083718382839383D0C0E02FF0E0EE0F80
:2042C000FF1FEE0FFF1FE057F94FD701C601B05880839183A283B383C0C00A3008F4C1C0D6
:2042E0009F5F943009F4BDC00A50A9CFC701B6010E94AE390E94FF36E02FF0E0EC31F105DF
:2043000008F0AFC0EC5CFF4FEE0FFF1F0590F491E02D0994633010F486E0A4C060939C06CB
:204320009CC060939F0699C060939D0602C060939E060E94441D91C0662321F08091A90693
:20434000846009C08091A9068B7F05C0662331F08091A90680648093A9067FC08091A90612
:204360008F7BF9CF662321F08091A9068068F3CF8091A9068F77EFCF6093A0066EC0C092CA
:20438000A106D092A206E092A306F092A40665C0C092A506D092A606E092A706F092A806A6
:2043A0005CC0662321F08091A9068160D4CF8091A9068E7FD0CF662321F08091A90682605B
:2043C000CACF8091A9068D7FC6CF662341F08091A90684FD02C08AE045C08062BCCF809139
:2043E000A9068F7DB8CF662321F08091A906886003C08091A906877F8093A9060E948029A3
:204400002CC0662321F08091A9068061A4CF8091A9068F7CA0CF6093AA061FC0C092AB0643
:20442000D092AC06E092AD06F092AE0616C0C092AF06D092B006E092B106F092B2060DC0E8
:204440006093B3061092B40608C0C092B506D092B606E092B706F092B8060E94F72080E0D9
:2044600001C083E01F910F91FF90EF90DF90CF9008958AE080939C068EEF80939F06109259
:204480009D0680EC80939E0683E08093A0068AE097EDA3EABCE38093A1069093A206A09368
:2044A000A306B093A4068FE692E1A3E0BBE38093A5069093A606A093A706B093A80680E29D
:2044C0008093AA0680E090E0A8E4B2E48093AB069093AC06A093AD06B093AE0680E090E8D9
:2044E000ABEBB4E48093AF069093B006A093B106B093B20684E190E09093B4068093B3068A
:2045000080E090E0A0E0B0E48093B5069093B606A093B706B093B8068AE18093A9068CE17F
:2045200097ECA1EBB2E480936C0690936D06A0936E06B0936F068093700690937106A09306
:204540007206B093730680E090E0A8E4B3E48093740690937506A0937606B093770680E03A
:2045600090E8A2E2B5E48093780690937906A0937A06B0937B0680937C0690937D06A0938E
:204580007E06B0937F0680E090ECAEE9B4E48093800690938106A0938206B093830680E09A
:2045A00090E0AAE7B4E48093840690938506A0938606B09387068093880690938906A09302
:2045C0008A06B0938B0680938C0690938D06A0938E06B0938F0680E090E0AAE7B3EC80936A
:2045E000900690939106A0939206B09393068093940690939506A0939606B093970680E04A
:2046000090E0A8ECB2EC8093980690939906A0939A06B0939B060E94F72008959DE0899FD3
:20462000C001112480509E4F4CE050E00E94382008950F931F93CF93DF93162F072F9DE0B4
:20464000899FE0011124C050DE4F862F972FBE014CE050E00E948120892B11F081E00FC021
:20466000E12FF02F8CE0DF011D928A95E9F7CE01612F702F4CE050E00E94382080E0DF91ED
:20468000CF911F910F910895EF92FF921F93DF93CF93CDB7DEB72C970FB6F894DEBF0FBE9E
:2046A000CDBF0E94D620882371F487E00E94E12E0E9439220E94EC208EEA93E060E00E9436
:2046C00016200E94203210E07E010894E11CF11C812FB7010E941923882319F487E00E9494
:2046E000E12E1F5F1830A1F72C960FB6F894DEBF0FBECDBFCF91DF911F91FF90EF90089519
:20470000BC018EEA93E040E550E00E9438200895CF93DF93EC016EEA73E040E550E00E94A2
:204720008120892B11F081E009C018828EEA93E0BE0140E550E00E94382080E0DF91CF9136
:20474000089591E5899FC001112480509D4F40E550E00E94382008950F931F93CF93DF9358
:204760008B0191E5899FE0011124C050DD4FCB01BE0140E550E00E948120892B11F081E084
:2047800009C0F8011082CE01B80140E550E00E94382080E0DF91CF911F910F910895209120
:2047A000F5048091F604821769F0922F9F5F903109F490E08091F804281711F49093F804A6
:2047C0009093F50408959091F5048091F604891719F420E030E006C08DE2989F900111240C
:2047E0002B5D3D4FC901089520E09091F5048091F704981709F421E0822F089580911805EF
:2048000090911905A0911A05B0911B058093F9049093FA04A093FB04B093FC0480911C05D0
:2048200090911D05A0911E05B0911F058093FD049093FE04A093FF04B0930005809120058F
:2048400090912105A0912205B09123058093010590930205A0930305B093040508958091D8
:20486000F6049091F504891710F0891B0895805F891B08954F925F926F927F928F929F92ED
:20488000AF92BF92CF92DF92EF92FF920F931F93CF93DF938091F604882309F480E1782EC0
:2048A0007A946090F804761409F4F2C08DE2789E4001112485E292E0880E991EF401A58882
:2048C000B688C788D08C21A132A143A154A1CA01B9010E94B235F40125A136A147A150A504
:2048E0000E94D4387B018C01B501C601A80197010E948B3687FD04C0D801C70157016D0131
:20490000C501D601F401818B928BA38BB48B772011F430E1732E7A94761409F04EC0809171
:20492000F504681609F050C00E94BD164DC0769CE0011124CB5DDD4F772011F420E1722EBC
:204940007A948091F504781611F40E94BD16AD88BE88CF88D88C69897A898B899C89A6012C
:2049600095010E948B36882331F129A13AA14BA15CA1CA01B9010E94B2352DA13EA14FA138
:2049800058A50E94D438F40121893289438954890E94B2357B018C01A60195010E948B3637
:2049A00088232CF4E98AFA8A0B8B1C8B04C0A98ABA8ACB8ADC8A4E0102C09DE2692E8091CA
:2049C000F804781609F0B3CFA090F804BA2CB394F0E1BF1609F4BB248DE2A89E800111248C
:2049E0000B5D1D4F5090F6048DE2482E4CC0B49CE0011124CB5DDD4FF801C188D288E38857
:204A0000F48869887A888B889C88C701B601A40193010E948B3688231CF5F80121A132A18B
:204A200043A154A1CA01B9010E94B235F80125A136A147A150A50E94D4389B01AC01C7015D
:204A4000B6010E94B2357B018C01A40193010E948B3688232CF4E98AFA8A0B8B1C8BAB2C9B
:204A600069897A898B899C892D893E894F89588D0E948B36882309F4AB2CB394F0E1BF16FF
:204A800009F4BB248E01B51409F0B1CFA092F804DF91CF911F910F91FF90EF90DF90CF903F
:204AA000BF90AF909F908F907F906F905F904F9008950E94BD168091F5048093F8040E9471
:204AC0003A2408952091F5042F5F203109F420E08091F604281729F460E070E080E090E08E
:204AE00012C030E08DE290E0289FF001299FF00D389FF00D1124EB5DFD4F618972898389EA
:204B000094890E94613908952F923F924F925F926F927F928F929F92AF92BF92CF92DF9273
:204B2000EF92FF920F931F93DF93CF93CDB7DEB7E0970FB6F894DEBF0FBECDBF98A78FA3F3
:204B400049A75AA76BA77CA7222E9091F6048DE2989F4001112425E232E0820E931ED40179
:204B60001D961D921D921D921C92509780E090E0A0E0B0E0F40185A396A3A7A3B0A7108277
:204B800089E996E7A6E9BEE781A392A3A3A3B4A3D4019996ED92FD920D931C939C97240143
:204BA000332466247724F301E459F94FA080B180C280D380EFA1F8A5E60DF71DC601B50169
:204BC00020813181428153810E94D4380E94A4389B01AC01E1E0F0E0EC0FFD1FE60DF71DC7
:204BE0002083318342835383F301E750FB4F80819181A281B38179018A01E81AF90A0A0BC5
:204C00001B0BC801B70117FF07C0EE24FF248701E61AF70A080B190BD2011196ED92FD9293
:204C20000D931C931497F4012585368547855089E216F3060407150710F479018A01D40185
:204C40001D96ED92FD920D931C9350970E942D37A60195010E9492365B016C01EDE0F0E04A
:204C6000EC0FFD1FE60DF71D608371838283938320E030E040E050E00E948B36882344F47E
:204C8000F4011081832D0E94C220182BD4011C93F401E5A0F6A007A110A5C601B501A60102
:204CA00095010E94D4389B01AC01C801B7010E94B2357B018C01CB01D801F40185A396A359
:204CC000A7A3B0A7339424E030E0620E731E420E531E33E0331609F066CFB701C8010E94E9
:204CE00061397B018C01D40195966D937D938D939C9398971D968D919D910D90BC91A02DCD
:204D00000097A105B10509F4E6C169A57AA58BA59CA520E030E040E050E00E948B368823F0
:204D20002CF489E996E7A6E9BEE71EC0222061F0C801B70129A53AA54BA55CA50E94923636
:204D400069A77AA78BA79CA769A57AA58BA59CA520E030E040E85FE30E948B36882344F44F
:204D600080E090E0A0E8BFE389A79AA7ABA7BCA760E070E080E89FE3A80197010E949236EE
:204D80006BA37CA38DA39EA3DE011D96BE8FAD8FE5E0F5E0FC8FEB8F08E716E01A8F098F95
:204DA00080E090E0A0E0B0E08F8F98A3A9A3BAA3DE015996B8ABAFA7ED8DFE8DE080F180B4
:204DC00002811381C801B70120E030E040E050E00E948B36882309F47CC0C801B7012BA147
:204DE0003CA14DA15EA10E94D4382B013C01AD8DBE8D6D937D938D939C93139760E070E0B4
:204E000080E89FE3A30192010E9492365B016C01E894D7F8C601B501E98DFA8D2081318126
:204E2000428153810E94D4387B018C0169A57AA58BA59CA5A80197010E948B3687FD04C09A
:204E4000E9A6FAA60BA71CA7D4019196BC91BDA7F401F2A1FEA7D40193962C9093979496C6
:204E60003C90C601B501E98DFA8D24853585468557850E94D4387B018C016DA57EA5C10134
:204E8000A80197010E948B3687FD05C0D801C701EDA69EA71D018DA59EA5D101F40181A32E
:204EA00092A3A3A3B4A3C301B201AB8DBC8D2D913D914D915C910E94D4389B01AC016F8DDE
:204EC00078A189A19AA10E94B1356F8F78A389A39AA3ED8DFE8D3496FE8FED8F0B8D1C8D31
:204EE0000C5F1F4F1C8F0B8F298D3A8D2C5F3F4F3A8F298F8FA598A9E817F90709F05CCFE5
:204F00009091F6048091F504981771F480E090E0A0E0B0E0F401818B928BA38BB48B818FDD
:204F2000928FA38FB48F52C060E070E080E89FE32F8D38A149A15AA10E94B13520E030E03D
:204F400040E05FE30E94D4380E9461395B016C01D40191966D917D918D919C91949720910D
:204F6000A1063091A2064091A3065091A4060E94D438A60195010E94D4387B018C0160E03A
:204F800070E080E89FE3A60195010E94B1359B01AC01C801B7010E9492367B018C0120E0D5
:204FA00030E040E050E00E948B36882354F40F2EF0E0EF2EF0E0FF2EF0E00F2FF0E01F2FE8
:204FC000F02DF401E18EF28E038F148F69A57AA58BA59CA59B01AC010E94D4387B018C01FD
:204FE000D4015D966D937D938D939C93909759965C9059975A964C905A975B963C905B972C
:205000005C962C90D0901105C0901205B0901305A09014052D2D3C2D4B2D5A2D0E948B363F
:2050200087FD04C06D2C7C2CF50105C0D801C7013701FA2FEB2F652D742D832D922D9301DA
:205040004F2F5E2F0E948B3688232CF4852D942DA32DB22D0EC0C801B7012D2D3C2D4B2D6B
:205060005A2D0E948B3687FD06C08D2D9C2DAB2DBA2D7C018D01F401E58AF68A078B108F9A
:20508000A5E0B5E0FE013D968CE001900D928150E1F7F401858D968DA78DB0A18093110507
:2050A00090931205A0931305B0931405A9EFB4E0FE0131968CE001900D928150E1F78091C7
:2050C000F7048093F6048F5F803109F480E08093F7040E943A24E0960FB6F894DEBF0FBE8D
:2050E000CDBFCF91DF911F910F91FF90EF90DF90CF90BF90AF909F908F907F906F905F904F
:205100004F903F902F9008958CE1E9EFF4E0DF011D928A95E9F71092F5041092F60481E046
:205120008093F7041092F80408956F927F928F929F92AF92BF92CF92DF92EF92FF920F93AA
:205140001F93CF93DF934C013B015A01FB018081F401E80FF11DEF0189918D3229F4818106
:205160002196CC24C39405C08B3211F481812196CC2420E030E040E050E0DD24E0E070E090
:20518000682F60536A30F8F4EF5FE930C0F47111DA94DA01C901F2E0880F991FAA1FBB1FCB
:2051A000FA95D1F7280F391F4A1F5B1F220F331F441F551F260F311D411D511D09C077231A
:2051C00039F4D39405C06E3F29F4772319F471E08991D6CFEE2311F480E050C0CA01B901EA
:2051E0000E942B377B018C0120E030E040E050E00E948B36882369F42BC0C801B7012AE061
:2052000037ED43E25CE30E94D4387B018C01F2E0DF0E8FEFD8168CF3D81659F4C801B701E9
:205220002DEC3CEC4CEC5DE30E94D4387B018C010FC0DD2069F0C801B70120E030E040E226
:2052400051E40E94D4387B018C01DA941D149CF3CC2049F0D801C701B058F5018083918359
:20526000A283B38305C0F501E082F18202831383882D80958C0FF301808381E0DF91CF919B
:205280001F910F91FF90EF90DF90CF90BF90AF909F908F907F906F90089520EA3FE004C06E
:2052A000F9013197F1F701970097D1F70895AF92BF92CF92DF92EF92FF920F931F937B016A
:2052C0008C0159016A01A80197010E94D4387B018C01C601B501A60195010E94D4389B0180
:2052E000AC01C801B7010E94B2350E9461391F910F91FF90EF90DF90CF90BF90AF90089564
:2053000084B1897E84B98091A906982F86FF03C085B1897E02C085B1866185B993FF09C090
:2053200080916B00866180936B0080916800816008C080916B00897E80936B0080916800F0
:205340008E7F809368000895EBE6F0E08081897E8083E8E6F0E080818E7F80830895CF92CF
:20536000DF92EF92FF920F931F93CF93DF936C01C0E0D0E0F601EC0FFD1FE080F180028163
:205380001381C801B70120E030E040E050E00E94993818166CF0FE01E459F94FC801B70196
:2053A00024A135A146A157A10E948B36882304F580911605803179F49FB7F8948091170513
:2053C0008860809317059FBF0E942415809115058823D1F312C00E9436049FB7F894809142
:2053E00017058066809317059FBF0E94241505C02496CC30D10509F0BDCFDF91CF911F91ED
:205400000F91FF90EF90DF90CF9008951F920F920FB60F9211242F933F934F935F936F931C
:205420007F938F939F93AF93BF93EF93FF9380911605813071F08091170585FD0AC00E9405
:2054400036049FB7F894809117058066809317059FBFFF91EF91BF91AF919F918F917F9190
:205460006F915F914F913F912F910F900FBE0F901F9018952F923F924F925F926F927F92EF
:205480008F929F92AF92BF92CF92DF92EF92FF920F931F93DF93CF93CDB7DEB7A1970FB606
:2054A000F894DEBF0FBECDBF8F8F80911505882309F0E9C18091AF069091B006A091B1064E
:2054C000B091B2068F8B988FA98FBA8FB0E9AB2EB6E0BB2E6624772488249924CC24DD24A1
:2054E0001E010894211C311CA4E04A2E512C4C0E5D1E8C2D0E94CC20F101EC0DFD1D8083CA
:205500008C2D0E94B820F201EC0DFD1D8083D501ED90FD900D911C91B301C401A80197016A
:205520000E949938181624F0C301D4017C018D010894C11CD11CE4E0F0E0AE0EBF1EF3E0AC
:20554000CF16D10429F0D801C70137014D01D1CFC801B70120E030E040EC5FEB0E94D438FC
:205560004B015C010E948428CC24C39425E02D8B9F8D892F90E099A388A32401350177FAA9
:20558000709477F870948091A90686FD02C0CE8A03C0A1E0AC25AE8B8091AA06082F10E001
:2055A000F7E02F2E312C2C0E3D1E910160E0DD2440E050E0742F88A199A1042E02C095957E
:2055C00087950A94E2F7E1E0EE2EF12CE822F92280FF10C06F5FCC2031F4F901408251825C
:2055E0006282738210C0D9018D929D92AD92BC92139709C080E090E0A0E0B0E0F9018083FD
:205600009183A283B383C80102C0959587957A95E2F780FF0AC0F90180819181A281B381B5
:20562000B05880839183A283B383EF2841F0E4E0F0E0EC0FFD1FE40FF51F8081D82A4F5F45
:205640005F4F2C5F3F4F4330510509F0B3CF70E080E090E00E942B370E9461399B01AC0196
:20566000D09225056F89788D898D9A8D0E94D438AB01BC01CE01079620E0EE24EA94FE2C27
:2056800087010E9484250E94F6160E945D1643B1FE89FF2311F026E1422720E030E0E4E092
:2056A000F0E0EC0FFD1FE20FF31F90818D2D892359F0E1E0F0E0EC0FFD1FE20FF31F808194
:2056C000842311F09095D9222F5F3F4F2330310531F7D09225050E94F6168091170584FF4B
:2056E00003C00E942415CFC08D2D8C7181F60E94AC1D0E9484288091B3069091B4060E944F
:205700004D298091AB069091AC06A091AD06B091AE068F8B988FA98FBA8F9D89992329F0E8
:20572000A1E0CA2691509D8B2ECF8091AA06E82FF0E0FC8BEB8B4090B5065090B606609036
:20574000B7067090B806D301C201B0588B8F9C8FAD8FBE8F98E1C92E95E0D92E8CE6A82E2D
:2057600086E0B82E8824992488A199A1082C02C0959587950A94E2F780FF3DC08B899C89A9
:20578000082C02C0959587950A94E2F780FF23C0D5019496ED90FD900D911C919797C301AD
:2057A000B201A80197010E94B235F1016083718382839383C801B701D5012D913D914D91C7
:2057C0005C910E94D4380E94A438F601608371838283938323C08B8D9C8DAD8DBE8DF1012C
:2057E00080839183A283B383D6011D921D921D921C92139713C0F601608171818281938147
:205800000E942D37D5012D913D914D915C910E949236F10160837183828393830894811CCE
:20582000911C24E030E0220E331EC20ED31EA20EB31E33E08316910409F096CF0E94FE2382
:205840004091AF065091B0066091B1067091B206CE01079620E0EE24EA94FE2C87010E947A
:20586000842588E0809316059FB7F894809117058260809317059FBF0E9424150E94BE151B
:2058800084E080931605A1960FB6F894DEBF0FBECDBFCF91DF911F910F91FF90EF90DF905B
:2058A000CF90BF90AF909F908F907F906F905F904F903F902F9008958F929F92AF92BF92C2
:2058C000CF92DF92EF92FF920F931F93DF93CF93CDB7DEB72A970FB6F894DEBF0FBECDBF9B
:2058E0007B018C01A42E20E030E040E050E00E948B3688233CF48DE20E945C1417FB1095F7
:2059000017F91095DA2C0CC0C801B70120E030E048EC52E40E94D4387B018C018EEFD80EEB
:20592000E1E0ED1588F3A0FE0AC0C801B70120E030E040E251E40E94D4387B018C01C80159
:20594000B70120E030E040E05FE30E94B2350E94FA366B017C019E012F5F3F4FF901EA0D2D
:20596000F11D8EE28083BB2449011EC0BA1409F4B39484010B0D111DC701B6012AE030E029
:2059800040E050E00E94D939605DF8016083B394C701B6012AE030E040E050E00E94D93986
:2059A000C901DA016C017D01C114D104E104F104E9F606C0FC01EB0DF11D2083B39403C07E
:2059C000CE01019620E3BA14A8F3BA1489F48B2D8F5FFE01E80FF11D90E39183B82EB3944C
:2059E00007C0FE01EB0DF11D80810E945C14BA94BB20B9F72A960FB6F894DEBF0FBECDBFE8
:205A0000CF91DF911F910F91FF90EF90DF90CF90BF90AF909F908F90089543E00E945C2CC4
:205A200008959B01AC018091A90680FF0AC0CA01B9012BE832E441E25DE30E94D43841E097
:205A400003C0CA01B90140E00E945C2C08959B01AC018091A90680FF0AC0CA01B9012BE82D
:205A600032E441E25DE30E94D43844E003C0CA01B90143E00E945C2C0895AF92BF92CF92B6
:205A8000DF92EF92FF920F93DF93CF93CDB7DEB72C970FB6F894DEBF0FBECDBF6B017C0101
:205AA000611571058105910521F480E30E945C1432C000E05E010894A11CB11CC501800FA8
:205AC000911D9C878B87C701B6012AE030E040E050E00E94D939EB85FC8560830F5FC7013C
:205AE000B6012AE030E040E050E00E94D939C901DA016C017D01C114D104E104F104F1F6D6
:205B000008C0FE01E00FF11D8081805D0E945C1401500023B1F72C960FB6F894DEBF0FBE38
:205B2000CDBFCF91DF910F91FF90EF90DF90CF90BF90AF900895EF92FF920F931F937B0180
:205B40008C0197FF0AC08DE20E945C1466277727CB016E197F09800B910B0E943D2D1F91EE
:205B60000F91FF90EF9008951F93DF93CF9300D00F92CDB7DEB7282F882321F480E30E94AE
:205B80005C141EC010E0AE014F5F5F4FFA01E10FF11D822F6AE00E94CD39905D90831F5FA2
:205BA000822F0E94CD39282F882381F707C0FE01E10FF11D80810E945C1411501123B9F7F6
:205BC0000F900F900F90CF91DF911F9108950F931F93DF93CF93CDB7DEB728970FB6F8947A
:205BE000DEBF0FBECDBF982FFE0131969E01275F3F4F892F817081939695E217F307C9F7D4
:205C00008E01085F1F4FF8018081805D0E945C14015010400C171D07B1F728960FB6F89498
:205C2000DEBF0FBECDBFCF91DF911F910F910895CF93DF93EC0102C00E945C14FE01219666
:205C400084918823C9F7DF91CF910895CF93DF93EC0103C021960E945C1488818823D1F78E
:205C6000DF91CF9108953D988091A90687FF02C045980895459A0895982F1092B9068091AB
:205C8000A90687FD03C080E28093B906992331F08091B90690E289278093B906089586B165
:205CA00080729091B90689270895809126058130B1F486B180729091B906891781F0109277
:205CC0002605E7E2F5E0DF011F978CE00D9001928150E1F78091170588608093170508953F
:205CE00088EB94E00E94182E08958CEF95E00E94182E08951F93182F87E596E00E94182E00
:205D0000133091F0143028F4113041F01230B1F408C0143061F0153089F40CC085E496E03C
:205D20000BC081E396E008C08FE196E005C087E196E002C08EE096E00E94182E8AE096E0FF
:205D40000E94182E1F910895FF920F931F93CF93DF9383E192E00E94182E07E215E0CCE607
:205D6000D6E0FF24F80160817181828193810E942D37288139814A815B810E9492360E944B
:205D8000272DF2E0FF1621F081E192E00E94182EF3940C5F1F4F249683E0F81619F78FE0F1
:205DA00092E00E94182E809133050E94B42D8BE092E00E94182EDF91CF911F910F91FF9049
:205DC00008951F93182F882319F489EA97E05CC081EA97E00E94182E1730A9F1183078F410
:205DE000133029F1143030F41130C9F0123009F042C018C0153009F1163010F51BC01B301F
:205E000071F11C3028F4193021F11A3028F51EC0153141F1163161F1143169F526C089E80D
:205E200097E002C087E797E00E94182E2BC085E697E0FACF8BE597E0F7CF8AE497E0F4CF71
:205E40008BE397E0F1CF8AE197E0EECF81E197E0EBCF86E097E0E8CF83EF96E0E5CF85EEC8
:205E600096E0E2CF8FEC96E0DFCF8BEB96E0DCCF87EA96E0D9CF85E996E00E94182E812FBA
:205E80000E94B42D82E996E00E94182E1F910895DF92EF92FF920F931F93DF93CF93CDB73A
:205EA000DEB768970FB6F894DEBF0FBECDBFDE011196E8E1F5E08CE001900D928150E1F79E
:205EC000809116058430E1F0853038F48130D9F0813050F08230F1F419C0803159F08032A9
:205EE00061F08830B9F403C08BE391E011C084E391E00EC08FE291E00BC089E291E008C082
:205F000083E291E005C08CE191E002C085E191E00E94182E8091A006082F10E0C8018370ED
:205F20009070892BE1F169817A818B819C810E942D3720916C0630916D0640916E0650914A
:205F40006F060E9492366D877E878F87988B6D817E818F8198850E942D3720917006309128
:205F6000710640917206509173060E949236698B7A8B8B8B9C8B69857A858B859C850E94A7
:205F80002D37209174063091750640917606509177060E9492366D8B7E8B8F8B988F00FFE0
:205FA0001EC08EE091E00E94182E6D857E858F8598890E94272D8CE091E00E94182E698965
:205FC0007A898B899C890E94272D8CE091E00E94182E6D897E898F89988D0E94272D809189
:205FE000A00681FF50C085E091E00E94182E8E01035F1F4F87E5E82E85E0F82EDD24F70148
:20600000608171818281938124853585468557850E94B2359B01AC01F801608171818281EB
:2060200093810E94B135F8016083718382839383F2E0DF1679F420916F0530917005409179
:206040007105509172050E94B135F8016083718382839383F80160817181828193810E947A
:20606000272DF2E0DF1621F083E091E00E94182ED3940C5F1F4F84E090E0E80EF91E93E0A4
:20608000D91609F0BCCF8091A00682FF08C08DEF90E00E94182E0E942F240E94B42D809130
:2060A000A00683FF08C088EF90E00E94182E0E943B140E94B42D83EF90E00E94182E0E9441
:2060C000E323FC01009729F460E070E080E090E004C061A572A583A594A50E949B2D8FEE80
:2060E00090E00E94182E0E94DF160E94112D8BEE90E00E94182E68960FB6F894DEBF0FBE47
:20610000CDBFCF91DF911F910F91FF90EF90DF90089582EE91E00E94182E809134058430F2
:2061200001F1853048F4813099F0813070F0823091F0833031F512C08630C9F08630A0F09E
:206140008730C1F08830E9F418C08FED91E017C08CED91E014C089ED91E011C086ED91E04C
:206160000EC080ED91E00BC08AEC91E008C084EC91E005C08EEB91E002C08AEB91E00E941F
:20618000182E87EB91E00E94182E80913A058A5C0E94B42D80913805813041F0813018F04C
:2061A000823059F406C082EB91E005C08DEA91E002C088EA91E00E94182E8091360588230B
:2061C00019F483EA91E002C08EE991E00E94182E80913705882319F489E991E002C084E92B
:2061E00091E00E94182E80913505813019F48FE891E002C08AE891E00E94182E80913B0577
:20620000813041F0813018F0823059F406C086E891E005C082E891E002C08EE791E00E9455
:20622000182E80913D05813029F0813048F0823059F403C08AE791E005C086E791E002C009
:2062400082E791E00E94182E80913C05882319F0823041F403C08EE691E002C08AE691E044
:206260000E94182E87E691E00E94182E809146050E94B42D84E691E00E94182E6091420596
:206280007091430580914405909145050E94112D81E691E00E94182E60913E0570913F05D7
:2062A00080914005909141050E94112D8DE591E00E94182E08950F931F938C0185E491E01E
:2062C0000E94182EC8010E94262E81E491E00E94182E1F910F910895FF920F931F93F82E61
:2062E0008B018AE591E00E94182E8F2D0E94B42D88E591E00E94182EC8010E94262E85E51C
:2063000091E00E94182E1F910F91FF900895CF92DF92EF92FF920F931F93DF93CF93CDB718
:20632000DEB72C970FB6F894DEBF0FBECDBFEE246E010894C11CD11C8E2DB6010E94192387
:20634000882321F487E00E94E12E6BC088E092E00E94182E86E0E81621F0E7E0EE1649F4FB
:2063600003C085E092E002C082E092E00E94182E04C08E2D8A5C0E94B42D80E092E00E94A9
:20638000182E8601FF24F80160817181828193810E94272DF2E0FF1619F08EEF91E002C094
:2063A0008AEF91E00E94182EF3940C5F1F4F83E0F81649F7E394E8E0EE1609F0BDCF84EFBF
:2063C00091E00E94182E03E615E0FF24F80160817181828193810E94272DF2E0FF1619F09A
:2063E00082EF91E002C08EEE91E00E94182EF3940C5F1F4F83E0F81649F788EE91E00E948A
:20640000182E60916F057091700580917105909172050E94272D84EE91E00E94182E0E94D9
:20642000A42E2C960FB6F894DEBF0FBECDBFCF91DF911F910F91FF90EF90DF90CF900895E8
:20644000FF920F931F93CF93DF9384EB94E00E94182E80919C060E94B42D8BE994E00E94F8
:20646000182E80919F060E94B42D8DE794E00E94182E80919D060E94B42D84E694E00E9416
:20648000182E80919D060E94E72D8DE594E00E94182E80919E060E94B42D85E494E00E94C7
:2064A000182E80919E060E94E72D8EE394E00E94182E8091A90690E09695879596958795A0
:2064C00081700E94B42D8DE194E00E94182E8091A90690E066E0969587956A95E1F78170F9
:2064E0000E94B42D8DEF93E00E94182E90E08091A90687FD91E0892F0E94B42D8DED93E0F5
:206500000E94182E8091A0060E94B42D87EC93E00E94182E8091A0060E94E72D8FEB93E031
:206520000E94182E6091A1067091A2068091A3069091A4060E940D2D8FE993E00E94182EFE
:206540006091A5067091A6068091A7069091A8060E940D2D84E893E00E94182E8091A90602
:2065600081700E94B42D87E693E00E94182E8091A90690E09695879581700E94B42D8DE483
:2065800093E00E94182E8091A90690E045E0969587954A95E1F781700E94B42D82E393E001
:2065A0000E94182E8091A90690E033E0969587953A95E1F781700E94B42D87E193E00E94D1
:2065C000182E8091A90690E024E0969587952A95E1F781700E94B42D8BEF92E00E94182E1B
:2065E0008091AA060E94B42D81EE92E00E94182E8091AA060E94E72D89ED92E00E94182E47
:206600006091AB067091AC068091AD069091AE060E940D2D8CEB92E00E94182E6091AF0639
:206620007091B0068091B1069091B2060E940D2D8FE992E00E94182E8091B3060E94B42D07
:2066400080E892E00E94182E6091B5067091B6068091B7069091B8060E940D2D87E692E0A7
:206660000E94182E10E094E6F92E6AC085E692E00E94182E802F8F0D0E94B42D83E692E009
:206680000E94182E113061F0113028F0123069F01330E9F415C0688179818A819B8115C0B8
:2066A0006C857D858E859F8510C0688D798D8A8D9B8D20E030E041E655E40E94923605C007
:2066C0006CA17DA18EA19FA190580E940D2D80E692E00E94182E013041F0013018F00230CF
:2066E00059F406C08EE592E005C08CE592E002C08AE592E00E94182E113051F0113028F094
:20670000123049F0133071F409C080E592E008C08EE392E005C08DE292E002C08DE192E0C3
:206720000E94182E89E192E00E94182E0F5F2496033009F09BCF1F5F143031F08AE0F80E9C
:20674000CCE6D6E000E092CFDF91CF911F910F91FF9008951F93182F8AE896E00E94182E7B
:206760001E3F41F01F3F19F01D3F59F406C08AE796E005C087E696E002C08CE596E00E94DB
:20678000182E89E596E00E94182E84EF91E00E944D291F91089587B1887F87B988B18760FF
:2067A00088B9ECE6F0E0808187608083E8E6F0E080818260808308951F920F920FB60F9232
:2067C00011242F933F934F935F936F937F938F939F93AF93BF93EF93FF9386B190E0809550
:2067E000909587709070892B91F0309903C00E9436040DC0319904C080911705886005C0AB
:20680000329905C080911705826080931705FF91EF91BF91AF919F918F917F916F915F91BA
:206820004F913F912F910F900FBE0F901F901895CF93DF93EC0180E0BE010E94AC23882385
:2068400051F08881882351F0CE010E94262ECE010E94250901C087E00E94E12E81E0BE01A5
:206860000E94AC23882311F487E009C08881882341F0CE010E94262ECE010E9425090E94DC
:20688000E12EDF91CF910895DF92EF92FF920F931F93DF93CF93CDB7DEB729970FB6F894A7
:2068A000DEBF0FBECDBF7C0181E08983F7018181873419F188345CF4833449F184340CF088
:2068C00050C0882341F0843209F04BC007C0883509F047C034C00E94702E33C182E08983F8
:2068E000F7018281882309F026C180911605807309F023C10E94203224C182E08983F701D7
:206900008281882309F017C10E9489301AC192E09983F7018281882309F00DC1809116059B
:20692000823021F40E94360485E006C0882309F004C19093160584E00E947A2E02C182E00F
